{
  "contractName": "Coin",
  "abi": [
    {
      "anonymous": false,
      "inputs": [
        {
          "indexed": true,
          "internalType": "address",
          "name": "owner",
          "type": "address"
        },
        {
          "indexed": true,
          "internalType": "address",
          "name": "spender",
          "type": "address"
        },
        {
          "indexed": false,
          "internalType": "uint256",
          "name": "value",
          "type": "uint256"
        }
      ],
      "name": "Approval",
      "type": "event"
    },
    {
      "anonymous": false,
      "inputs": [
        {
          "indexed": true,
          "internalType": "address",
          "name": "previousOwner",
          "type": "address"
        },
        {
          "indexed": true,
          "internalType": "address",
          "name": "newOwner",
          "type": "address"
        }
      ],
      "name": "OwnershipTransferred",
      "type": "event"
    },
    {
      "anonymous": false,
      "inputs": [
        {
          "indexed": true,
          "internalType": "address",
          "name": "from",
          "type": "address"
        },
        {
          "indexed": true,
          "internalType": "address",
          "name": "to",
          "type": "address"
        },
        {
          "indexed": false,
          "internalType": "uint256",
          "name": "value",
          "type": "uint256"
        }
      ],
      "name": "Transfer",
      "type": "event"
    },
    {
      "stateMutability": "payable",
      "type": "fallback",
      "payable": true
    },
    {
      "inputs": [
        {
          "internalType": "address",
          "name": "owner",
          "type": "address"
        },
        {
          "internalType": "address",
          "name": "spender",
          "type": "address"
        }
      ],
      "name": "allowance",
      "outputs": [
        {
          "internalType": "uint256",
          "name": "",
          "type": "uint256"
        }
      ],
      "stateMutability": "view",
      "type": "function",
      "constant": true
    },
    {
      "inputs": [
        {
          "internalType": "address",
          "name": "spender",
          "type": "address"
        },
        {
          "internalType": "uint256",
          "name": "amount",
          "type": "uint256"
        }
      ],
      "name": "approve",
      "outputs": [
        {
          "internalType": "bool",
          "name": "",
          "type": "bool"
        }
      ],
      "stateMutability": "nonpayable",
      "type": "function"
    },
    {
      "inputs": [
        {
          "internalType": "address",
          "name": "account",
          "type": "address"
        }
      ],
      "name": "balanceOf",
      "outputs": [
        {
          "internalType": "uint256",
          "name": "",
          "type": "uint256"
        }
      ],
      "stateMutability": "view",
      "type": "function",
      "constant": true
    },
    {
      "inputs": [],
      "name": "decimals",
      "outputs": [
        {
          "internalType": "uint8",
          "name": "",
          "type": "uint8"
        }
      ],
      "stateMutability": "view",
      "type": "function",
      "constant": true
    },
    {
      "inputs": [
        {
          "internalType": "address",
          "name": "spender",
          "type": "address"
        },
        {
          "internalType": "uint256",
          "name": "subtractedValue",
          "type": "uint256"
        }
      ],
      "name": "decreaseAllowance",
      "outputs": [
        {
          "internalType": "bool",
          "name": "",
          "type": "bool"
        }
      ],
      "stateMutability": "nonpayable",
      "type": "function"
    },
    {
      "inputs": [],
      "name": "implementation",
      "outputs": [
        {
          "internalType": "address payable",
          "name": "",
          "type": "address"
        }
      ],
      "stateMutability": "view",
      "type": "function",
      "constant": true
    },
    {
      "inputs": [
        {
          "internalType": "address",
          "name": "spender",
          "type": "address"
        },
        {
          "internalType": "uint256",
          "name": "addedValue",
          "type": "uint256"
        }
      ],
      "name": "increaseAllowance",
      "outputs": [
        {
          "internalType": "bool",
          "name": "",
          "type": "bool"
        }
      ],
      "stateMutability": "nonpayable",
      "type": "function"
    },
    {
      "inputs": [],
      "name": "name",
      "outputs": [
        {
          "internalType": "string",
          "name": "",
          "type": "string"
        }
      ],
      "stateMutability": "view",
      "type": "function",
      "constant": true
    },
    {
      "inputs": [],
      "name": "owner",
      "outputs": [
        {
          "internalType": "address",
          "name": "",
          "type": "address"
        }
      ],
      "stateMutability": "view",
      "type": "function",
      "constant": true
    },
    {
      "inputs": [],
      "name": "renounceOwnership",
      "outputs": [],
      "stateMutability": "nonpayable",
      "type": "function"
    },
    {
      "inputs": [],
      "name": "symbol",
      "outputs": [
        {
          "internalType": "string",
          "name": "",
          "type": "string"
        }
      ],
      "stateMutability": "view",
      "type": "function",
      "constant": true
    },
    {
      "inputs": [],
      "name": "totalSupply",
      "outputs": [
        {
          "internalType": "uint256",
          "name": "",
          "type": "uint256"
        }
      ],
      "stateMutability": "view",
      "type": "function",
      "constant": true
    },
    {
      "inputs": [
        {
          "internalType": "address",
          "name": "recipient",
          "type": "address"
        },
        {
          "internalType": "uint256",
          "name": "amount",
          "type": "uint256"
        }
      ],
      "name": "transfer",
      "outputs": [
        {
          "internalType": "bool",
          "name": "",
          "type": "bool"
        }
      ],
      "stateMutability": "nonpayable",
      "type": "function"
    },
    {
      "inputs": [
        {
          "internalType": "address",
          "name": "sender",
          "type": "address"
        },
        {
          "internalType": "address",
          "name": "recipient",
          "type": "address"
        },
        {
          "internalType": "uint256",
          "name": "amount",
          "type": "uint256"
        }
      ],
      "name": "transferFrom",
      "outputs": [
        {
          "internalType": "bool",
          "name": "",
          "type": "bool"
        }
      ],
      "stateMutability": "nonpayable",
      "type": "function"
    },
    {
      "inputs": [
        {
          "internalType": "address",
          "name": "newOwner",
          "type": "address"
        }
      ],
      "name": "transferOwnership",
      "outputs": [],
      "stateMutability": "nonpayable",
      "type": "function"
    },
    {
      "stateMutability": "payable",
      "type": "receive",
      "payable": true
    },
    {
      "inputs": [
        {
          "internalType": "address",
          "name": "_creator",
          "type": "address"
        },
        {
          "internalType": "string",
          "name": "_name",
          "type": "string"
        },
        {
          "internalType": "string",
          "name": "_symbol",
          "type": "string"
        },
        {
          "internalType": "uint256",
          "name": "_initialSupply",
          "type": "uint256"
        },
        {
          "internalType": "address payable",
          "name": "_logic",
          "type": "address"
        }
      ],
      "name": "initialize",
      "outputs": [],
      "stateMutability": "nonpayable",
      "type": "function"
    },
    {
      "inputs": [
        {
          "internalType": "address",
          "name": "account",
          "type": "address"
        },
        {
          "internalType": "uint256",
          "name": "amount",
          "type": "uint256"
        }
      ],
      "name": "mint",
      "outputs": [],
      "stateMutability": "payable",
      "type": "function",
      "payable": true
    },
    {
      "inputs": [],
      "name": "_implementation",
      "outputs": [
        {
          "internalType": "address",
          "name": "",
          "type": "address"
        }
      ],
      "stateMutability": "view",
      "type": "function",
      "constant": true
    }
  ],
  "bytecode": "0x608060405234801561001057600080fd5b50600160978190555061289e806100286000396000f3fe60806040526004361061010d5760003560e01c806370a082311161009557806395d89b411161006457806395d89b4114610378578063a457c2d7146103a3578063a9059cbb146103e0578063dd62ed3e1461041d578063f2fde38b1461045a5761011c565b806370a08231146102d0578063715018a61461030d578063747b8a1c146103245780638da5cb5b1461034d5761011c565b8063313ce567116100dc578063313ce567146101f6578063395093511461022157806340c10f191461025e57806359679b0f1461027a5780635c60da1b146102a55761011c565b806306fdde0314610126578063095ea7b31461015157806318160ddd1461018e57806323b872dd146101b95761011c565b3661011c5761011a610483565b005b610124610483565b005b34801561013257600080fd5b5061013b61049d565b6040516101489190611ff4565b60405180910390f35b34801561015d57600080fd5b5061017860048036038101906101739190611d1c565b61052f565b6040516101859190611fd9565b60405180910390f35b34801561019a57600080fd5b506101a361054d565b6040516101b091906121b6565b60405180910390f35b3480156101c557600080fd5b506101e060048036038101906101db9190611c26565b610557565b6040516101ed9190611fd9565b60405180910390f35b34801561020257600080fd5b5061020b610658565b60405161021891906121d1565b60405180910390f35b34801561022d57600080fd5b5061024860048036038101906102439190611d1c565b610661565b6040516102559190611fd9565b60405180910390f35b61027860048036038101906102739190611d1c565b61070d565b005b34801561028657600080fd5b5061028f6107ed565b60405161029c9190611fa3565b60405180910390f35b3480156102b157600080fd5b506102ba610817565b6040516102c79190611fbe565b60405180910390f35b3480156102dc57600080fd5b506102f760048036038101906102f29190611bc1565b61083d565b60405161030491906121b6565b60405180910390f35b34801561031957600080fd5b50610322610886565b005b34801561033057600080fd5b5061034b60048036038101906103469190611c75565b6109c3565b005b34801561035957600080fd5b50610362610b6f565b60405161036f9190611fa3565b60405180910390f35b34801561038457600080fd5b5061038d610b99565b60405161039a9190611ff4565b60405180910390f35b3480156103af57600080fd5b506103ca60048036038101906103c59190611d1c565b610c2b565b6040516103d79190611fd9565b60405180910390f35b3480156103ec57600080fd5b5061040760048036038101906104029190611d1c565b610d1f565b6040516104149190611fd9565b60405180910390f35b34801561042957600080fd5b50610444600480360381019061043f9190611bea565b610d3d565b60405161045191906121b6565b60405180910390f35b34801561046657600080fd5b50610481600480360381019061047c9190611bc1565b610dc4565b005b61048b610f70565b61049b6104966107ed565b610f72565b565b6060603680546104ac90612391565b80601f01602080910402602001604051908101604052809291908181526020018280546104d890612391565b80156105255780601f106104fa57610100808354040283529160200191610525565b820191906000526020600020905b81548152906001019060200180831161050857829003601f168201915b5050505050905090565b600061054361053c610f98565b8484610fa0565b6001905092915050565b6000603554905090565b600061056484848461116b565b6000603460008673ffffffffffffffffffffffffffffffffffffffff1673ffffffffffffffffffffffffffffffffffffffff16815260200190815260200160002060006105af610f98565b73ffffffffffffffffffffffffffffffffffffffff1673ffffffffffffffffffffffffffffffffffffffff1681526020019081526020016000205490508281101561062f576040517f08c379a0000000000000000000000000000000000000000000000000000000008152600401610626906120d6565b60405180910390fd5b61064c8561063b610f98565b858461064791906122b4565b610fa0565b60019150509392505050565b60006012905090565b600061070361066e610f98565b84846034600061067c610f98565b73ffffffffffffffffffffffffffffffffffffffff1673ffffffffffffffffffffffffffffffffffffffff16815260200190815260200160002060008873ffffffffffffffffffffffffffffffffffffffff1673ffffffffffffffffffffffffffffffffffffffff168152602001908152602001600020546106fe919061225e565b610fa0565b6001905092915050565b610715610f98565b73ffffffffffffffffffffffffffffffffffffffff16610733610b6f565b73ffffffffffffffffffffffffffffffffffffffff1614610789576040517f08c379a0000000000000000000000000000000000000000000000000000000008152600401610780906120f6565b60405180910390fd5b600260975414156107cf576040517f08c379a00000000000000000000000000000000000000000000000000000000081526004016107c690612156565b60405180910390fd5b60026097819055506107e182826113ed565b60016097819055505050565b6000609860009054906101000a900473ffffffffffffffffffffffffffffffffffffffff16905090565b609860009054906101000a900473ffffffffffffffffffffffffffffffffffffffff1681565b6000603360008373ffffffffffffffffffffffffffffffffffffffff1673ffffffffffffffffffffffffffffffffffffffff168152602001908152602001600020549050919050565b61088e610f98565b73ffffffffffffffffffffffffffffffffffffffff166108ac610b6f565b73ffffffffffffffffffffffffffffffffffffffff1614610902576040517f08c379a00000000000000000000000000000000000000000000000000000000081526004016108f9906120f6565b60405180910390fd5b600073ffffffffffffffffffffffffffffffffffffffff16606560009054906101000a900473ffffffffffffffffffffffffffffffffffffffff1673ffffffffffffffffffffffffffffffffffffffff167f8be0079c531659141344cd1fd0a4f28419497f9722a3daafe3b4186f6b6457e060405160405180910390a36000606560006101000a81548173ffffffffffffffffffffffffffffffffffffffff021916908373ffffffffffffffffffffffffffffffffffffffff160217905550565b600060019054906101000a900460ff16806109e9575060008054906101000a900460ff16155b610a28576040517f08c379a0000000000000000000000000000000000000000000000000000000008152600401610a1f906120b6565b60405180910390fd5b60008060019054906101000a900460ff161590508015610a78576001600060016101000a81548160ff02191690831515021790555060016000806101000a81548160ff0219169083151502179055505b600073ffffffffffffffffffffffffffffffffffffffff168273ffffffffffffffffffffffffffffffffffffffff161415610ae8576040517f08c379a0000000000000000000000000000000000000000000000000000000008152600401610adf90612096565b60405180910390fd5b610af28585611542565b610afb8661162f565b81609860006101000a81548173ffffffffffffffffffffffffffffffffffffffff021916908373ffffffffffffffffffffffffffffffffffffffff160217905550610b4686846113ed565b8015610b675760008060016101000a81548160ff0219169083151502179055505b505050505050565b6000606560009054906101000a900473ffffffffffffffffffffffffffffffffffffffff16905090565b606060378054610ba890612391565b80601f0160208091040260200160405190810160405280929190818152602001828054610bd490612391565b8015610c215780601f10610bf657610100808354040283529160200191610c21565b820191906000526020600020905b815481529060010190602001808311610c0457829003601f168201915b5050505050905090565b60008060346000610c3a610f98565b73ffffffffffffffffffffffffffffffffffffffff1673ffffffffffffffffffffffffffffffffffffffff16815260200190815260200160002060008573ffffffffffffffffffffffffffffffffffffffff1673ffffffffffffffffffffffffffffffffffffffff16815260200190815260200160002054905082811015610cf7576040517f08c379a0000000000000000000000000000000000000000000000000000000008152600401610cee90612176565b60405180910390fd5b610d14610d02610f98565b858584610d0f91906122b4565b610fa0565b600191505092915050565b6000610d33610d2c610f98565b848461116b565b6001905092915050565b6000603460008473ffffffffffffffffffffffffffffffffffffffff1673ffffffffffffffffffffffffffffffffffffffff16815260200190815260200160002060008373ffffffffffffffffffffffffffffffffffffffff1673ffffffffffffffffffffffffffffffffffffffff16815260200190815260200160002054905092915050565b610dcc610f98565b73ffffffffffffffffffffffffffffffffffffffff16610dea610b6f565b73ffffffffffffffffffffffffffffffffffffffff1614610e40576040517f08c379a0000000000000000000000000000000000000000000000000000000008152600401610e37906120f6565b60405180910390fd5b600073ffffffffffffffffffffffffffffffffffffffff168173ffffffffffffffffffffffffffffffffffffffff161415610eb0576040517f08c379a0000000000000000000000000000000000000000000000000000000008152600401610ea790612036565b60405180910390fd5b8073ffffffffffffffffffffffffffffffffffffffff16606560009054906101000a900473ffffffffffffffffffffffffffffffffffffffff1673ffffffffffffffffffffffffffffffffffffffff167f8be0079c531659141344cd1fd0a4f28419497f9722a3daafe3b4186f6b6457e060405160405180910390a380606560006101000a81548173ffffffffffffffffffffffffffffffffffffffff021916908373ffffffffffffffffffffffffffffffffffffffff16021790555050565b565b3660008037600080366000845af43d6000803e8060008114610f93573d6000f35b3d6000fd5b600033905090565b600073ffffffffffffffffffffffffffffffffffffffff168373ffffffffffffffffffffffffffffffffffffffff161415611010576040517f08c379a000000000000000000000000000000000000000000000000000000000815260040161100790612136565b60405180910390fd5b600073ffffffffffffffffffffffffffffffffffffffff168273ffffffffffffffffffffffffffffffffffffffff161415611080576040517f08c379a000000000000000000000000000000000000000000000000000000000815260040161107790612056565b60405180910390fd5b80603460008573ffffffffffffffffffffffffffffffffffffffff1673ffffffffffffffffffffffffffffffffffffffff16815260200190815260200160002060008473ffffffffffffffffffffffffffffffffffffffff1673ffffffffffffffffffffffffffffffffffffffff168152602001908152602001600020819055508173ffffffffffffffffffffffffffffffffffffffff168373ffffffffffffffffffffffffffffffffffffffff167f8c5be1e5ebec7d5bd14f71427d1e84f3dd0314c0f7b2291e5b200ac8c7c3b9258360405161115e91906121b6565b60405180910390a3505050565b600073ffffffffffffffffffffffffffffffffffffffff168373ffffffffffffffffffffffffffffffffffffffff1614156111db576040517f08c379a00000000000000000000000000000000000000000000000000000000081526004016111d290612116565b60405180910390fd5b600073ffffffffffffffffffffffffffffffffffffffff168273ffffffffffffffffffffffffffffffffffffffff16141561124b576040517f08c379a000000000000000000000000000000000000000000000000000000000815260040161124290612016565b60405180910390fd5b61125683838361171a565b6000603360008573ffffffffffffffffffffffffffffffffffffffff1673ffffffffffffffffffffffffffffffffffffffff168152602001908152602001600020549050818110156112dd576040517f08c379a00000000000000000000000000000000000000000000000000000000081526004016112d490612076565b60405180910390fd5b81816112e991906122b4565b603360008673ffffffffffffffffffffffffffffffffffffffff1673ffffffffffffffffffffffffffffffffffffffff1681526020019081526020016000208190555081603360008573ffffffffffffffffffffffffffffffffffffffff1673ffffffffffffffffffffffffffffffffffffffff168152602001908152602001600020600082825461137b919061225e565b925050819055508273ffffffffffffffffffffffffffffffffffffffff168473ffffffffffffffffffffffffffffffffffffffff167fddf252ad1be2c89b69c2b068fc378daa952ba7f163c4a11628f55a4df523b3ef846040516113df91906121b6565b60405180910390a350505050565b600073ffffffffffffffffffffffffffffffffffffffff168273ffffffffffffffffffffffffffffffffffffffff16141561145d576040517f08c379a000000000000000000000000000000000000000000000000000000000815260040161145490612196565b60405180910390fd5b6114696000838361171a565b806035600082825461147b919061225e565b9250508190555080603360008473ffffffffffffffffffffffffffffffffffffffff1673ffffffffffffffffffffffffffffffffffffffff16815260200190815260200160002060008282546114d1919061225e565b925050819055508173ffffffffffffffffffffffffffffffffffffffff16600073ffffffffffffffffffffffffffffffffffffffff167fddf252ad1be2c89b69c2b068fc378daa952ba7f163c4a11628f55a4df523b3ef8360405161153691906121b6565b60405180910390a35050565b600060019054906101000a900460ff1680611568575060008054906101000a900460ff16155b6115a7576040517f08c379a000000000000000000000000000000000000000000000000000000000815260040161159e906120b6565b60405180910390fd5b60008060019054906101000a900460ff1615905080156115f7576001600060016101000a81548160ff02191690831515021790555060016000806101000a81548160ff0219169083151502179055505b6115ff61171f565b61160983836117f8565b801561162a5760008060016101000a81548160ff0219169083151502179055505b505050565b600060019054906101000a900460ff1680611655575060008054906101000a900460ff16155b611694576040517f08c379a000000000000000000000000000000000000000000000000000000000815260040161168b906120b6565b60405180910390fd5b60008060019054906101000a900460ff1615905080156116e4576001600060016101000a81548160ff02191690831515021790555060016000806101000a81548160ff0219169083151502179055505b6116ec61171f565b6116f582611901565b80156117165760008060016101000a81548160ff0219169083151502179055505b5050565b505050565b600060019054906101000a900460ff1680611745575060008054906101000a900460ff16155b611784576040517f08c379a000000000000000000000000000000000000000000000000000000000815260040161177b906120b6565b60405180910390fd5b60008060019054906101000a900460ff1615905080156117d4576001600060016101000a81548160ff02191690831515021790555060016000806101000a81548160ff0219169083151502179055505b80156117f55760008060016101000a81548160ff0219169083151502179055505b50565b600060019054906101000a900460ff168061181e575060008054906101000a900460ff16155b61185d576040517f08c379a0000000000000000000000000000000000000000000000000000000008152600401611854906120b6565b60405180910390fd5b60008060019054906101000a900460ff1615905080156118ad576001600060016101000a81548160ff02191690831515021790555060016000806101000a81548160ff0219169083151502179055505b82603690805190602001906118c3929190611a77565b5081603790805190602001906118da929190611a77565b5080156118fc5760008060016101000a81548160ff0219169083151502179055505b505050565b600060019054906101000a900460ff1680611927575060008054906101000a900460ff16155b611966576040517f08c379a000000000000000000000000000000000000000000000000000000000815260040161195d906120b6565b60405180910390fd5b60008060019054906101000a900460ff1615905080156119b6576001600060016101000a81548160ff02191690831515021790555060016000806101000a81548160ff0219169083151502179055505b81606560006101000a81548173ffffffffffffffffffffffffffffffffffffffff021916908373ffffffffffffffffffffffffffffffffffffffff1602179055508173ffffffffffffffffffffffffffffffffffffffff16600073ffffffffffffffffffffffffffffffffffffffff167f8be0079c531659141344cd1fd0a4f28419497f9722a3daafe3b4186f6b6457e060405160405180910390a38015611a735760008060016101000a81548160ff0219169083151502179055505b5050565b828054611a8390612391565b90600052602060002090601f016020900481019282611aa55760008555611aec565b82601f10611abe57805160ff1916838001178555611aec565b82800160010185558215611aec579182015b82811115611aeb578251825591602001919060010190611ad0565b5b509050611af99190611afd565b5090565b5b80821115611b16576000816000905550600101611afe565b5090565b6000611b2d611b2884612211565b6121ec565b905082815260208101848484011115611b4557600080fd5b611b5084828561234f565b509392505050565b600081359050611b6781612823565b92915050565b600081359050611b7c8161283a565b92915050565b600082601f830112611b9357600080fd5b8135611ba3848260208601611b1a565b91505092915050565b600081359050611bbb81612851565b92915050565b600060208284031215611bd357600080fd5b6000611be184828501611b58565b91505092915050565b60008060408385031215611bfd57600080fd5b6000611c0b85828601611b58565b9250506020611c1c85828601611b58565b9150509250929050565b600080600060608486031215611c3b57600080fd5b6000611c4986828701611b58565b9350506020611c5a86828701611b58565b9250506040611c6b86828701611bac565b9150509250925092565b600080600080600060a08688031215611c8d57600080fd5b6000611c9b88828901611b58565b955050602086013567ffffffffffffffff811115611cb857600080fd5b611cc488828901611b82565b945050604086013567ffffffffffffffff811115611ce157600080fd5b611ced88828901611b82565b9350506060611cfe88828901611bac565b9250506080611d0f88828901611b6d565b9150509295509295909350565b60008060408385031215611d2f57600080fd5b6000611d3d85828601611b58565b9250506020611d4e85828601611bac565b9150509250929050565b611d61816122fa565b82525050565b611d70816122e8565b82525050565b611d7f8161230c565b82525050565b6000611d9082612242565b611d9a818561224d565b9350611daa81856020860161235e565b611db381612481565b840191505092915050565b6000611dcb60238361224d565b9150611dd682612492565b604082019050919050565b6000611dee60268361224d565b9150611df9826124e1565b604082019050919050565b6000611e1160228361224d565b9150611e1c82612530565b604082019050919050565b6000611e3460268361224d565b9150611e3f8261257f565b604082019050919050565b6000611e5760278361224d565b9150611e62826125ce565b604082019050919050565b6000611e7a602e8361224d565b9150611e858261261d565b604082019050919050565b6000611e9d60288361224d565b9150611ea88261266c565b604082019050919050565b6000611ec060208361224d565b9150611ecb826126bb565b602082019050919050565b6000611ee360258361224d565b9150611eee826126e4565b604082019050919050565b6000611f0660248361224d565b9150611f1182612733565b604082019050919050565b6000611f29601f8361224d565b9150611f3482612782565b602082019050919050565b6000611f4c60258361224d565b9150611f57826127ab565b604082019050919050565b6000611f6f601f8361224d565b9150611f7a826127fa565b602082019050919050565b611f8e81612338565b82525050565b611f9d81612342565b82525050565b6000602082019050611fb86000830184611d67565b92915050565b6000602082019050611fd36000830184611d58565b92915050565b6000602082019050611fee6000830184611d76565b92915050565b6000602082019050818103600083015261200e8184611d85565b905092915050565b6000602082019050818103600083015261202f81611dbe565b9050919050565b6000602082019050818103600083015261204f81611de1565b9050919050565b6000602082019050818103600083015261206f81611e04565b9050919050565b6000602082019050818103600083015261208f81611e27565b9050919050565b600060208201905081810360008301526120af81611e4a565b9050919050565b600060208201905081810360008301526120cf81611e6d565b9050919050565b600060208201905081810360008301526120ef81611e90565b9050919050565b6000602082019050818103600083015261210f81611eb3565b9050919050565b6000602082019050818103600083015261212f81611ed6565b9050919050565b6000602082019050818103600083015261214f81611ef9565b9050919050565b6000602082019050818103600083015261216f81611f1c565b9050919050565b6000602082019050818103600083015261218f81611f3f565b9050919050565b600060208201905081810360008301526121af81611f62565b9050919050565b60006020820190506121cb6000830184611f85565b92915050565b60006020820190506121e66000830184611f94565b92915050565b60006121f6612207565b905061220282826123c3565b919050565b6000604051905090565b600067ffffffffffffffff82111561222c5761222b612452565b5b61223582612481565b9050602081019050919050565b600081519050919050565b600082825260208201905092915050565b600061226982612338565b915061227483612338565b9250827fffffffffffffffffffffffffffffffffffffffffffffffffffffffffffffffff038211156122a9576122a86123f4565b5b828201905092915050565b60006122bf82612338565b91506122ca83612338565b9250828210156122dd576122dc6123f4565b5b828203905092915050565b60006122f382612318565b9050919050565b600061230582612318565b9050919050565b60008115159050919050565b600073ffffffffffffffffffffffffffffffffffffffff82169050919050565b6000819050919050565b600060ff82169050919050565b82818337600083830152505050565b60005b8381101561237c578082015181840152602081019050612361565b8381111561238b576000848401525b50505050565b600060028204905060018216806123a957607f821691505b602082108114156123bd576123bc612423565b5b50919050565b6123cc82612481565b810181811067ffffffffffffffff821117156123eb576123ea612452565b5b80604052505050565b7f4e487b7100000000000000000000000000000000000000000000000000000000600052601160045260246000fd5b7f4e487b7100000000000000000000000000000000000000000000000000000000600052602260045260246000fd5b7f4e487b7100000000000000000000000000000000000000000000000000000000600052604160045260246000fd5b6000601f19601f8301169050919050565b7f45524332303a207472616e7366657220746f20746865207a65726f206164647260008201527f6573730000000000000000000000000000000000000000000000000000000000602082015250565b7f4f776e61626c653a206e6577206f776e657220697320746865207a65726f206160008201527f6464726573730000000000000000000000000000000000000000000000000000602082015250565b7f45524332303a20617070726f766520746f20746865207a65726f20616464726560008201527f7373000000000000000000000000000000000000000000000000000000000000602082015250565b7f45524332303a207472616e7366657220616d6f756e742065786365656473206260008201527f616c616e63650000000000000000000000000000000000000000000000000000602082015250565b7f4c6f67696320436f6e74726163742063616e6e6f742062652061207a65726f2060008201527f6164647265737300000000000000000000000000000000000000000000000000602082015250565b7f496e697469616c697a61626c653a20636f6e747261637420697320616c72656160008201527f647920696e697469616c697a6564000000000000000000000000000000000000602082015250565b7f45524332303a207472616e7366657220616d6f756e742065786365656473206160008201527f6c6c6f77616e6365000000000000000000000000000000000000000000000000602082015250565b7f4f776e61626c653a2063616c6c6572206973206e6f7420746865206f776e6572600082015250565b7f45524332303a207472616e736665722066726f6d20746865207a65726f20616460008201527f6472657373000000000000000000000000000000000000000000000000000000602082015250565b7f45524332303a20617070726f76652066726f6d20746865207a65726f2061646460008201527f7265737300000000000000000000000000000000000000000000000000000000602082015250565b7f5265656e7472616e637947756172643a207265656e7472616e742063616c6c00600082015250565b7f45524332303a2064656372656173656420616c6c6f77616e63652062656c6f7760008201527f207a65726f000000000000000000000000000000000000000000000000000000602082015250565b7f45524332303a206d696e7420746f20746865207a65726f206164647265737300600082015250565b61282c816122e8565b811461283757600080fd5b50565b612843816122fa565b811461284e57600080fd5b50565b61285a81612338565b811461286557600080fd5b5056fea264697066735822122003c3b6102312e57ac0ed7e4501663de09a06b1625fe63784bd9c23a2c5ea111d64736f6c63430008020033",
  "immutableReferences": {},
  "source": "// SPDX-License-Identifier: MIT\r\npragma solidity >=0.6.0 <0.9.0 ;\r\npragma experimental ABIEncoderV2;\r\n\r\n\r\nimport \"../client/node_modules/@openzeppelin/contracts-upgradeable/token/ERC20/ERC20Upgradeable.sol\";\r\nimport \"../client/node_modules/@openzeppelin/contracts/utils/math/SafeMath.sol\";\r\nimport \"../client/node_modules/@openzeppelin/contracts/security/ReentrancyGuard.sol\";\r\nimport \"../client/node_modules/@openzeppelin/contracts/proxy/Proxy.sol\";\r\nimport \"./OwnableUpgradeable.sol\";\r\n\r\n\r\n\r\ncontract Coin is ERC20Upgradeable, OwnableUpgradeable, ReentrancyGuard, Proxy {\r\n    address payable public implementation;\r\n\r\n    function initialize(address _creator, string memory _name, string memory _symbol, uint256 _initialSupply, address payable _logic) public virtual initializer {\r\n        require(_logic != address(0), \"Logic Contract cannot be a zero address\");\r\n        __ERC20_init(_name, _symbol);\r\n        __Ownable_init(_creator);\r\n        implementation=_logic;\r\n        _mint(_creator, _initialSupply);\r\n    }\r\n\r\n\r\n    function mint(address account, uint amount) public payable onlyOwner nonReentrant {\r\n        _mint(account, amount);\r\n    }\r\n\r\n    function _implementation() public view override returns(address){\r\n        return implementation;\r\n    }\r\n\r\n    \r\n    function _msgSender() internal view override returns (address) {\r\n        return msg.sender;\r\n    }\r\n\r\n    function _msgData() internal view override returns (bytes calldata) {\r\n        this; // silence state mutability warning without generating bytecode - see https://github.com/ethereum/solidity/issues/2691\r\n        return msg.data;\r\n    }\r\n\r\n    //ERC20 FUNCTIONS\r\n    /*\r\n    function balanceOf(address user) external view returns(uint256){\r\n        Coin _coin = Coin(coinInstance);\r\n        return _coin.balanceOf(user);\r\n    }\r\n\r\n    function transfer(address recipient, uint256 amount) external payable nonReentrant returns(bool){\r\n        Coin _coin = Coin(coinInstance);\r\n\r\n        return _coin.transferFrom(msg.sender,recipient, amount);\r\n    }\r\n\r\n    \r\n\r\n    function owner() external view returns (address minter){\r\n        Coin _coin = Coin(coinInstance);\r\n        minter = _coin.owner();\r\n        return minter;\r\n    }\r\n    */\r\n}",
  "sourcePath": "C:\\Users\\cr100131\\apps\\MyPortfolio\\contracts\\Coin.sol",
  "compiler": {
    "name": "solc",
    "version": "0.8.2+commit.661d1103.Emscripten.clang"
  },
  "schemaVersion": "3.3.4",
  "updatedAt": "2021-04-01T16:58:29.683Z",
  "networkType": "ethereum",
  "devdoc": {
    "kind": "dev",
    "methods": {
      "_implementation()": {
        "details": "This is a virtual function that should be overriden so it returns the address to which the fallback function and {_fallback} should delegate."
      },
      "allowance(address,address)": {
        "details": "See {IERC20-allowance}."
      },
      "approve(address,uint256)": {
        "details": "See {IERC20-approve}. Requirements: - `spender` cannot be the zero address."
      },
      "balanceOf(address)": {
        "details": "See {IERC20-balanceOf}."
      },
      "decimals()": {
        "details": "Returns the number of decimals used to get its user representation. For example, if `decimals` equals `2`, a balance of `505` tokens should be displayed to a user as `5,05` (`505 / 10 ** 2`). Tokens usually opt for a value of 18, imitating the relationship between Ether and Wei. This is the value {ERC20} uses, unless this function is overloaded; NOTE: This information is only used for _display_ purposes: it in no way affects any of the arithmetic of the contract, including {IERC20-balanceOf} and {IERC20-transfer}."
      },
      "decreaseAllowance(address,uint256)": {
        "details": "Atomically decreases the allowance granted to `spender` by the caller. This is an alternative to {approve} that can be used as a mitigation for problems described in {IERC20-approve}. Emits an {Approval} event indicating the updated allowance. Requirements: - `spender` cannot be the zero address. - `spender` must have allowance for the caller of at least `subtractedValue`."
      },
      "increaseAllowance(address,uint256)": {
        "details": "Atomically increases the allowance granted to `spender` by the caller. This is an alternative to {approve} that can be used as a mitigation for problems described in {IERC20-approve}. Emits an {Approval} event indicating the updated allowance. Requirements: - `spender` cannot be the zero address."
      },
      "name()": {
        "details": "Returns the name of the token."
      },
      "owner()": {
        "details": "Returns the address of the current owner."
      },
      "renounceOwnership()": {
        "details": "Leaves the contract without owner. It will not be possible to call `onlyOwner` functions anymore. Can only be called by the current owner. NOTE: Renouncing ownership will leave the contract without an owner, thereby removing any functionality that is only available to the owner."
      },
      "symbol()": {
        "details": "Returns the symbol of the token, usually a shorter version of the name."
      },
      "totalSupply()": {
        "details": "See {IERC20-totalSupply}."
      },
      "transfer(address,uint256)": {
        "details": "See {IERC20-transfer}. Requirements: - `recipient` cannot be the zero address. - the caller must have a balance of at least `amount`."
      },
      "transferFrom(address,address,uint256)": {
        "details": "See {IERC20-transferFrom}. Emits an {Approval} event indicating the updated allowance. This is not required by the EIP. See the note at the beginning of {ERC20}. Requirements: - `sender` and `recipient` cannot be the zero address. - `sender` must have a balance of at least `amount`. - the caller must have allowance for ``sender``'s tokens of at least `amount`."
      },
      "transferOwnership(address)": {
        "details": "Transfers ownership of the contract to a new account (`newOwner`). Can only be called by the current owner."
      }
    },
    "version": 1
  },
  "userdoc": {
    "kind": "user",
    "methods": {},
    "version": 1
  }
}