{
  "contractName": "LPool",
  "abi": [
    {
      "anonymous": false,
      "inputs": [
        {
          "indexed": true,
          "internalType": "address",
          "name": "previousOwner",
          "type": "address"
        },
        {
          "indexed": true,
          "internalType": "address",
          "name": "newOwner",
          "type": "address"
        }
      ],
      "name": "OwnershipTransferred",
      "type": "event"
    },
    {
      "stateMutability": "payable",
      "type": "fallback",
      "payable": true
    },
    {
      "inputs": [],
      "name": "accumulatedFees",
      "outputs": [
        {
          "internalType": "uint240",
          "name": "",
          "type": "uint240"
        }
      ],
      "stateMutability": "view",
      "type": "function",
      "constant": true
    },
    {
      "inputs": [],
      "name": "baseFee",
      "outputs": [
        {
          "internalType": "uint8",
          "name": "",
          "type": "uint8"
        }
      ],
      "stateMutability": "view",
      "type": "function",
      "constant": true
    },
    {
      "inputs": [],
      "name": "hasEth",
      "outputs": [
        {
          "internalType": "uint8",
          "name": "",
          "type": "uint8"
        }
      ],
      "stateMutability": "view",
      "type": "function",
      "constant": true
    },
    {
      "inputs": [],
      "name": "owner",
      "outputs": [
        {
          "internalType": "address",
          "name": "",
          "type": "address"
        }
      ],
      "stateMutability": "view",
      "type": "function",
      "constant": true
    },
    {
      "inputs": [],
      "name": "renounceOwnership",
      "outputs": [],
      "stateMutability": "nonpayable",
      "type": "function"
    },
    {
      "inputs": [
        {
          "internalType": "uint256",
          "name": "",
          "type": "uint256"
        }
      ],
      "name": "tokenLiquidity",
      "outputs": [
        {
          "internalType": "uint256",
          "name": "",
          "type": "uint256"
        }
      ],
      "stateMutability": "view",
      "type": "function",
      "constant": true
    },
    {
      "inputs": [
        {
          "internalType": "address",
          "name": "newOwner",
          "type": "address"
        }
      ],
      "name": "transferOwnership",
      "outputs": [],
      "stateMutability": "nonpayable",
      "type": "function"
    },
    {
      "stateMutability": "payable",
      "type": "receive",
      "payable": true
    },
    {
      "inputs": [
        {
          "internalType": "address[]",
          "name": "_tokens",
          "type": "address[]"
        },
        {
          "internalType": "uint256[]",
          "name": "_tokenSupplies",
          "type": "uint256[]"
        },
        {
          "internalType": "uint16[]",
          "name": "_definedWeights",
          "type": "uint16[]"
        },
        {
          "internalType": "address",
          "name": "_logic",
          "type": "address"
        }
      ],
      "name": "initialize",
      "outputs": [],
      "stateMutability": "payable",
      "type": "function",
      "payable": true
    },
    {
      "inputs": [],
      "name": "_implementation",
      "outputs": [
        {
          "internalType": "address",
          "name": "",
          "type": "address"
        }
      ],
      "stateMutability": "view",
      "type": "function",
      "constant": true
    }
  ],
  "bytecode": "0x60806040526014606660156101000a81548160ff021916908360ff16021790555034801561002c57600080fd5b506001606581905550611b9f806100446000396000f3fe60806040526004361061008a5760003560e01c8063715018a611610059578063715018a61461014f5780638da5cb5b14610166578063a871f17a14610191578063f2fde38b146101ce578063fa3c8ec7146101f757610099565b80631e93e41c146100a3578063587f5ed7146100ce57806359679b0f146100f95780636ef25c3a1461012457610099565b3661009957610097610213565b005b6100a1610213565b005b3480156100af57600080fd5b506100b861022d565b6040516100c59190611648565b60405180910390f35b3480156100da57600080fd5b506100e3610240565b6040516100f09190611612565b60405180910390f35b34801561010557600080fd5b5061010e610270565b60405161011b91906114e0565b60405180910390f35b34801561013057600080fd5b5061013961029a565b6040516101469190611648565b60405180910390f35b34801561015b57600080fd5b506101646102ad565b005b34801561017257600080fd5b5061017b6103ea565b60405161018891906114e0565b60405180910390f35b34801561019d57600080fd5b506101b860048036038101906101b39190611377565b610414565b6040516101c5919061162d565b60405180910390f35b3480156101da57600080fd5b506101f560048036038101906101f0919061127a565b610438565b005b610211600480360381019061020c91906112a3565b6105e4565b005b61021b610cfa565b61022b610226610270565b610cfc565b565b606660149054906101000a900460ff1681565b606760009054906101000a90047dffffffffffffffffffffffffffffffffffffffffffffffffffffffffffff1681565b6000606660009054906101000a900473ffffffffffffffffffffffffffffffffffffffff16905090565b606660159054906101000a900460ff1681565b6102b5610d22565b73ffffffffffffffffffffffffffffffffffffffff166102d36103ea565b73ffffffffffffffffffffffffffffffffffffffff1614610329576040517f08c379a0000000000000000000000000000000000000000000000000000000008152600401610320906115d2565b60405180910390fd5b600073ffffffffffffffffffffffffffffffffffffffff16603360009054906101000a900473ffffffffffffffffffffffffffffffffffffffff1673ffffffffffffffffffffffffffffffffffffffff167f8be0079c531659141344cd1fd0a4f28419497f9722a3daafe3b4186f6b6457e060405160405180910390a36000603360006101000a81548173ffffffffffffffffffffffffffffffffffffffff021916908373ffffffffffffffffffffffffffffffffffffffff160217905550565b6000603360009054906101000a900473ffffffffffffffffffffffffffffffffffffffff16905090565b6069818154811061042457600080fd5b906000526020600020016000915090505481565b610440610d22565b73ffffffffffffffffffffffffffffffffffffffff1661045e6103ea565b73ffffffffffffffffffffffffffffffffffffffff16146104b4576040517f08c379a00000000000000000000000000000000000000000000000000000000081526004016104ab906115d2565b60405180910390fd5b600073ffffffffffffffffffffffffffffffffffffffff168173ffffffffffffffffffffffffffffffffffffffff161415610524576040517f08c379a000000000000000000000000000000000000000000000000000000000815260040161051b90611532565b60405180910390fd5b8073ffffffffffffffffffffffffffffffffffffffff16603360009054906101000a900473ffffffffffffffffffffffffffffffffffffffff1673ffffffffffffffffffffffffffffffffffffffff167f8be0079c531659141344cd1fd0a4f28419497f9722a3daafe3b4186f6b6457e060405160405180910390a380603360006101000a81548173ffffffffffffffffffffffffffffffffffffffff021916908373ffffffffffffffffffffffffffffffffffffffff16021790555050565b600060019054906101000a900460ff168061060a575060008054906101000a900460ff16155b610649576040517f08c379a000000000000000000000000000000000000000000000000000000000815260040161064090611592565b60405180910390fd5b60008060019054906101000a900460ff161590508015610699576001600060016101000a81548160ff02191690831515021790555060016000806101000a81548160ff0219169083151502179055505b600073ffffffffffffffffffffffffffffffffffffffff168273ffffffffffffffffffffffffffffffffffffffff161415610709576040517f08c379a000000000000000000000000000000000000000000000000000000000815260040161070090611572565b60405180910390fd5b61071233610d2a565b6001835111610756576040517f08c379a000000000000000000000000000000000000000000000000000000000815260040161074d90611552565b60405180910390fd5b81606660006101000a81548173ffffffffffffffffffffffffffffffffffffffff021916908373ffffffffffffffffffffffffffffffffffffffff160217905550606060008151905060005b8160ff168160ff161015610a6a576000888260ff16815181106107ee577f4e487b7100000000000000000000000000000000000000000000000000000000600052603260045260246000fd5b6020026020010151905060008173ffffffffffffffffffffffffffffffffffffffff166323b872dd33308c8760ff1681518110610854577f4e487b7100000000000000000000000000000000000000000000000000000000600052603260045260246000fd5b60200260200101516040518463ffffffff1660e01b815260040161087a939291906114fb565b602060405180830381600087803b15801561089457600080fd5b505af11580156108a8573d6000803e3d6000fd5b505050506040513d601f19601f820116820180604052508101906108cc919061134e565b90506001151581151514610915576040517f08c379a000000000000000000000000000000000000000000000000000000000815260040161090c906115f2565b60405180910390fd5b898360ff1681518110610951577f4e487b7100000000000000000000000000000000000000000000000000000000600052603260045260246000fd5b602002602001015173ffffffffffffffffffffffffffffffffffffffff16858460ff16815181106109ab577f4e487b7100000000000000000000000000000000000000000000000000000000600052603260045260246000fd5b60200260200101818152505060a0888460ff16815181106109f5577f4e487b7100000000000000000000000000000000000000000000000000000000600052603260045260246000fd5b602002602001015161ffff16901b61ffff16858460ff1681518110610a43577f4e487b7100000000000000000000000000000000000000000000000000000000600052603260045260246000fd5b60200260200101818151179150818152505050508080610a6290611842565b9150506107a2565b506000341115610bd1576001606660146101000a81548160ff021916908360ff16021790555060004711610ad3576040517f08c379a0000000000000000000000000000000000000000000000000000000008152600401610aca906115b2565b60405180910390fd5b3073ffffffffffffffffffffffffffffffffffffffff16828260ff1681518110610b26577f4e487b7100000000000000000000000000000000000000000000000000000000600052603260045260246000fd5b60200260200101818152505060a0858260ff1681518110610b70577f4e487b7100000000000000000000000000000000000000000000000000000000600052603260045260246000fd5b602002602001015161ffff16901b61ffff16828260ff1681518110610bbe577f4e487b7100000000000000000000000000000000000000000000000000000000600052603260045260246000fd5b6020026020010181815117915081815250505b84600081518110610c0b577f4e487b7100000000000000000000000000000000000000000000000000000000600052603260045260246000fd5b602002602001015161ffff1686600081518110610c51577f4e487b7100000000000000000000000000000000000000000000000000000000600052603260045260246000fd5b6020026020010151610c63919061171d565b606860003373ffffffffffffffffffffffffffffffffffffffff1673ffffffffffffffffffffffffffffffffffffffff16815260200190815260200160002060006101000a8154816bffffffffffffffffffffffff02191690836bffffffffffffffffffffffff16021790555050508015610cf35760008060016101000a81548160ff0219169083151502179055505b5050505050565b565b3660008037600080366000845af43d6000803e8060008114610d1d573d6000f35b3d6000fd5b600033905090565b600060019054906101000a900460ff1680610d50575060008054906101000a900460ff16155b610d8f576040517f08c379a0000000000000000000000000000000000000000000000000000000008152600401610d8690611592565b60405180910390fd5b60008060019054906101000a900460ff161590508015610ddf576001600060016101000a81548160ff02191690831515021790555060016000806101000a81548160ff0219169083151502179055505b610de7610e15565b610df082610eee565b8015610e115760008060016101000a81548160ff0219169083151502179055505b5050565b600060019054906101000a900460ff1680610e3b575060008054906101000a900460ff16155b610e7a576040517f08c379a0000000000000000000000000000000000000000000000000000000008152600401610e7190611592565b60405180910390fd5b60008060019054906101000a900460ff161590508015610eca576001600060016101000a81548160ff02191690831515021790555060016000806101000a81548160ff0219169083151502179055505b8015610eeb5760008060016101000a81548160ff0219169083151502179055505b50565b600060019054906101000a900460ff1680610f14575060008054906101000a900460ff16155b610f53576040517f08c379a0000000000000000000000000000000000000000000000000000000008152600401610f4a90611592565b60405180910390fd5b60008060019054906101000a900460ff161590508015610fa3576001600060016101000a81548160ff02191690831515021790555060016000806101000a81548160ff0219169083151502179055505b81603360006101000a81548173ffffffffffffffffffffffffffffffffffffffff021916908373ffffffffffffffffffffffffffffffffffffffff1602179055508173ffffffffffffffffffffffffffffffffffffffff16600073ffffffffffffffffffffffffffffffffffffffff167f8be0079c531659141344cd1fd0a4f28419497f9722a3daafe3b4186f6b6457e060405160405180910390a380156110605760008060016101000a81548160ff0219169083151502179055505b5050565b600061107761107284611688565b611663565b9050808382526020820190508285602086028201111561109657600080fd5b60005b858110156110c657816110ac88826111a8565b845260208401935060208301925050600181019050611099565b5050509392505050565b60006110e36110de846116b4565b611663565b9050808382526020820190508285602086028201111561110257600080fd5b60005b8581101561113257816111188882611250565b845260208401935060208301925050600181019050611105565b5050509392505050565b600061114f61114a846116e0565b611663565b9050808382526020820190508285602086028201111561116e57600080fd5b60005b8581101561119e57816111848882611265565b845260208401935060208301925050600181019050611171565b5050509392505050565b6000813590506111b781611b0d565b92915050565b600082601f8301126111ce57600080fd5b81356111de848260208601611064565b91505092915050565b600082601f8301126111f857600080fd5b81356112088482602086016110d0565b91505092915050565b600082601f83011261122257600080fd5b813561123284826020860161113c565b91505092915050565b60008151905061124a81611b24565b92915050565b60008135905061125f81611b3b565b92915050565b60008135905061127481611b52565b92915050565b60006020828403121561128c57600080fd5b600061129a848285016111a8565b91505092915050565b600080600080608085870312156112b957600080fd5b600085013567ffffffffffffffff8111156112d357600080fd5b6112df878288016111bd565b945050602085013567ffffffffffffffff8111156112fc57600080fd5b61130887828801611211565b935050604085013567ffffffffffffffff81111561132557600080fd5b611331878288016111e7565b9250506060611342878288016111a8565b91505092959194509250565b60006020828403121561136057600080fd5b600061136e8482850161123b565b91505092915050565b60006020828403121561138957600080fd5b600061139784828501611265565b91505092915050565b6113a9816117db565b82525050565b6113b88161174e565b82525050565b60006113cb60268361170c565b91506113d68261190a565b604082019050919050565b60006113ee602e8361170c565b91506113f982611959565b604082019050919050565b600061141160278361170c565b915061141c826119a8565b604082019050919050565b6000611434602e8361170c565b915061143f826119f7565b604082019050919050565b600061145760258361170c565b915061146282611a46565b604082019050919050565b600061147a60208361170c565b915061148582611a95565b602082019050919050565b600061149d60238361170c565b91506114a882611abe565b604082019050919050565b6114bc8161179a565b82525050565b6114cb816117c4565b82525050565b6114da816117ce565b82525050565b60006020820190506114f560008301846113af565b92915050565b600060608201905061151060008301866113af565b61151d60208301856113a0565b61152a60408301846114c2565b949350505050565b6000602082019050818103600083015261154b816113be565b9050919050565b6000602082019050818103600083015261156b816113e1565b9050919050565b6000602082019050818103600083015261158b81611404565b9050919050565b600060208201905081810360008301526115ab81611427565b9050919050565b600060208201905081810360008301526115cb8161144a565b9050919050565b600060208201905081810360008301526115eb8161146d565b9050919050565b6000602082019050818103600083015261160b81611490565b9050919050565b600060208201905061162760008301846114b3565b92915050565b600060208201905061164260008301846114c2565b92915050565b600060208201905061165d60008301846114d1565b92915050565b600061166d61167e565b90506116798282611811565b919050565b6000604051905090565b600067ffffffffffffffff8211156116a3576116a26118ca565b5b602082029050602081019050919050565b600067ffffffffffffffff8211156116cf576116ce6118ca565b5b602082029050602081019050919050565b600067ffffffffffffffff8211156116fb576116fa6118ca565b5b602082029050602081019050919050565b600082825260208201905092915050565b6000611728826117c4565b9150611733836117c4565b9250826117435761174261189b565b5b828204905092915050565b60006117598261177a565b9050919050565b60008115159050919050565b600061ffff82169050919050565b600073ffffffffffffffffffffffffffffffffffffffff82169050919050565b60007dffffffffffffffffffffffffffffffffffffffffffffffffffffffffffff82169050919050565b6000819050919050565b600060ff82169050919050565b60006117e6826117ed565b9050919050565b60006117f8826117ff565b9050919050565b600061180a8261177a565b9050919050565b61181a826118f9565b810181811067ffffffffffffffff82111715611839576118386118ca565b5b80604052505050565b600061184d826117ce565b915060ff8214156118615761186061186c565b5b600182019050919050565b7f4e487b7100000000000000000000000000000000000000000000000000000000600052601160045260246000fd5b7f4e487b7100000000000000000000000000000000000000000000000000000000600052601260045260246000fd5b7f4e487b7100000000000000000000000000000000000000000000000000000000600052604160045260246000fd5b6000601f19601f8301169050919050565b7f4f776e61626c653a206e6577206f776e657220697320746865207a65726f206160008201527f6464726573730000000000000000000000000000000000000000000000000000602082015250565b7f706f6f6c206d75737420626520696e697469616c697a6564207769746820617460008201527f206c65617374203220636f696e73000000000000000000000000000000000000602082015250565b7f4c6f67696320436f6e74726163742063616e6e6f742062652061207a65726f2060008201527f6164647265737300000000000000000000000000000000000000000000000000602082015250565b7f496e697469616c697a61626c653a20636f6e747261637420697320616c72656160008201527f647920696e697469616c697a6564000000000000000000000000000000000000602082015250565b7f436f6e747261637420646f6573206e6f74206861766520616e2045544820626160008201527f6c616e6365000000000000000000000000000000000000000000000000000000602082015250565b7f4f776e61626c653a2063616c6c6572206973206e6f7420746865206f776e6572600082015250565b7f546f6b656e207472616e7366657220746f20706f6f6c20756e7375636365737360008201527f66756c0000000000000000000000000000000000000000000000000000000000602082015250565b611b168161174e565b8114611b2157600080fd5b50565b611b2d81611760565b8114611b3857600080fd5b50565b611b448161176c565b8114611b4f57600080fd5b50565b611b5b816117c4565b8114611b6657600080fd5b5056fea2646970667358221220d8b883a2a9cb42bce886a01249cc99c4a7a4fe7446485643e4963924f00d549b64736f6c63430008020033",
  "immutableReferences": {},
  "source": "// SPDX-License-Identifier: MIT\r\npragma solidity >=0.6.0 <0.9.0 ;\r\npragma experimental ABIEncoderV2;\r\n\r\n\r\nimport \"../client/node_modules/@openzeppelin/contracts-upgradeable/token/ERC20/ERC20Upgradeable.sol\";\r\nimport \"../client/node_modules/@openzeppelin/contracts/utils/math/SafeMath.sol\";\r\nimport \"../client/node_modules/@openzeppelin/contracts/security/ReentrancyGuard.sol\";\r\nimport \"../client/node_modules/@openzeppelin/contracts/proxy/Proxy.sol\";\r\nimport \"./OwnableUpgradeable.sol\";\r\nimport \"./Coin.sol\";\r\n\r\ncontract LPool is OwnableUpgradeable, ReentrancyGuard, Proxy{\r\n/*ERC20 Liquidity Pool Contract\r\nThe value of these pools equals the number of ether staked times the total number of coins staked(all coins in pool will be weighted equally), Which means the value of each pool is based on the\r\npool's supply of ether. The only time a pool's value changes is if a liquidity provider deposits or withdraws value. A pool's value remains constant during \r\ntoken exchanges. To create a pool only ether must be staked, but a pool with only ether would not be utilized because it would not support trade with\r\nany other coins. Any token can be staked to a pool already containing ether. The frontend application will determine which pool will create the most optimal trade \r\nfor the user, so the application will autobalance coin prices, and a higher number of pools will result in more stable coin pricing between pools.\r\n  */\r\naddress implementation; //logic contract\r\nuint8 public hasEth; //determines if the pool has ether\r\nuint8 public baseFee = 20;  //exchange fee of pool in percent*10\r\nuint240 public accumulatedFees; \r\nmapping(address => uint96) userValue; //users deposited value based on token index 0\r\nuint256[] public tokenLiquidity; //bitwise data of tokens (uint160 = tokenAddress, uint96 = definedWeights) \r\n\r\n  \r\n\r\n\r\n\r\n    function initialize(address[] memory _tokens, uint256[] memory _tokenSupplies, uint16[] memory _definedWeights, address _logic) public virtual payable initializer {\r\n        require(_logic != address(0), \"Logic Contract cannot be a zero address\");\r\n        __Ownable_init(msg.sender);\r\n        require(_definedWeights.length > 1, \"pool must be initialized with at least 2 coins\");\r\n        implementation = _logic;\r\n        uint256[] memory _tokenLiquidity;\r\n        uint8 _total = uint8(_tokenLiquidity.length);\r\n        for(uint8 i = 0; i < _total; i++){\r\n            Coin _coin = Coin(payable(_tokens[i])); //get instance of token\r\n            //transfer token from pool owner to liquidity pool\r\n            bool success = _coin.transferFrom(msg.sender, payable(address(this)), _tokenSupplies[i]);\r\n            require(success == true,\"Token transfer to pool unsuccessful\");\r\n            //store token address\r\n            _tokenLiquidity[i] = uint256(uint160(_tokens[i]));\r\n            //store weight\r\n            _tokenLiquidity[i] |= _definedWeights[i]<<160; //weights are defined as percentages out of 1000\r\n        }\r\n        if(msg.value > 0){\r\n            hasEth=1;\r\n            require(address(this).balance>0,\"Contract does not have an ETH balance\");\r\n            _tokenLiquidity[_total] = uint256(uint160(address(this)));\r\n            _tokenLiquidity[_total] |= _definedWeights[_total]<<160;\r\n        }\r\n\r\n        userValue[msg.sender] = uint96(_tokenSupplies[0]/uint256(_definedWeights[0]));\r\n        \r\n    }\r\n\r\n\r\n/*\r\n\r\n\r\n\r\n\r\n    function deposit(address memory _token, uint256 _amount) external payable nonReentrant{\r\n        uint96 _poolValue = uint96(poolData>>160); //get current Pool Value\r\n        uint16 _tokenCount = tokens.length+1;\r\n        //loop through deposited tokens to determine if new token is required\r\n        uint8 _tokenMatch = 0;\r\n        for(uint16 i = 0;i < _tokenCount; i++){\r\n            if(address(tokens[i]) == _token){\r\n                _tokenMatch = 1;\r\n                break;\r\n            }\r\n        }\r\n\r\n        //store new token and user value in pool\r\n        if(_tokenMatch == 0){\r\n            uint96 _requestedTokenValue = (_poolValue1/(1 + _tokenCount));\r\n            //update Pool Value\r\n                _poolValue += _requestedTokenValue;\r\n                poolValue |= (_poolValue)<<160;\r\n            //add token\r\n                uint256 _tokenLiquidity = uint256(_token);\r\n                _tokenLiquidity |= _amount<<160;\r\n                tokenLiquidity.push(_tokenLiquidity);\r\n            //update user value\r\n                userValue[msg.sender] += _requestedTokenValue;\r\n\r\n\r\n        //add liquidity to existing token\r\n        } else {\r\n            uint96 _TokenValue = (_poolValue1/(_tokenCount)); //now \r\n            //update Pool Value\r\n                _poolValue += _requestedTokenValue;\r\n                poolValue |= (_poolValue)<<160;\r\n            //add token\r\n                uint256 _tokenLiquidity = uint256(_token);\r\n                _tokenLiquidity |= _amount<<160;\r\n                tokenLiquidity.push(_tokenLiquidity);\r\n            //update user value\r\n                userValue[msg.sender] += _requestedTokenValue;\r\n        }\r\n        Coin _coin = Coin(_token);\r\n    }\r\n\r\n\r\n\r\n    function withdraw(address[] memory _tokens, uint256 _value) external payable nonReentrant{\r\n        Coin _coin = Coin(_token);\r\n    }\r\n\r\n    function getUserValue() public view returns(uint){\r\n\r\n    }\r\n\r\n    //returns total pool value in terms on the specified token (eq.9 Balancer Whitepaper)\r\n    function poolValue(uint16 _tokenIndex) public view returns(uint256){\r\n        return uint96(tokenLiquidity[_tokenIndex]>>160)/definedWeights[_tokenIndex];\r\n    }\r\n\r\n    //returns the spot price of the \"_indexOut\" token in relation to the \"_indexIn\" token (eq.2 Balancer Whitepaper)\r\n    function spotPrice(uint16 _indexIn, uint16 _indexOut)public view returns (uint256 spotPrice){\r\n        uint256 tokenIn = uint96(tokenLiquidity[_indexIn]>>160)/definedWeights[_indexIn];\r\n        uint256 tokenOut =uint96(tokenLiquidity[_indexIOut]>>160)/definedWeights[_indexOut];\r\n        spotPrice = tokenIn/tokenOut;\r\n        return spotPrice;\r\n    }\r\n\r\n    //returns amount of coins a user should receive for a given trade (eq.15 in Balancer Whitepaper)\r\n    function returnOutGivenIn(uint16 _indexIn, uint16 _indexOut, uint256 _amountIn) external view returns (uint256 amountOut){\r\n        amountOut = (uint96(tokenLiquidity[_tokenIndex]>>160))*(1-(((uint96(tokenLiquidity[_tokenIndex]>>160))/((uint96(tokenLiquidity[_tokenIndex]>>160))+(_amountIn)))**(definedWeights[_indexIn]/definedWeights[_indexOut])));\r\n        return amountOut;\r\n    }\r\n\r\n*/\r\n\r\n\r\n\r\n\r\n\r\n\r\n\r\n    function _implementation() public view override returns(address){\r\n        return implementation;\r\n    }\r\n\r\n    function _msgSender() internal view override returns (address) {\r\n        return msg.sender;\r\n    }\r\n\r\n    function _msgData() internal view override returns (bytes calldata) {\r\n        this; // silence state mutability warning without generating bytecode - see https://github.com/ethereum/solidity/issues/2691\r\n        return msg.data;\r\n    }\r\n\r\n\r\n}",
  "sourcePath": "C:\\Users\\cr100131\\apps\\MyPortfolio\\contracts\\LPool.sol",
  "compiler": {
    "name": "solc",
    "version": "0.8.2+commit.661d1103.Emscripten.clang"
  },
  "schemaVersion": "3.3.4",
  "updatedAt": "2021-04-01T16:58:29.698Z",
  "networkType": "ethereum",
  "devdoc": {
    "kind": "dev",
    "methods": {
      "_implementation()": {
        "details": "This is a virtual function that should be overriden so it returns the address to which the fallback function and {_fallback} should delegate."
      },
      "owner()": {
        "details": "Returns the address of the current owner."
      },
      "renounceOwnership()": {
        "details": "Leaves the contract without owner. It will not be possible to call `onlyOwner` functions anymore. Can only be called by the current owner. NOTE: Renouncing ownership will leave the contract without an owner, thereby removing any functionality that is only available to the owner."
      },
      "transferOwnership(address)": {
        "details": "Transfers ownership of the contract to a new account (`newOwner`). Can only be called by the current owner."
      }
    },
    "version": 1
  },
  "userdoc": {
    "kind": "user",
    "methods": {},
    "version": 1
  }
}