{
  "contractName": "Minter",
  "abi": [
    {
      "anonymous": false,
      "inputs": [
        {
          "indexed": false,
          "internalType": "address",
          "name": "coinAddress",
          "type": "address"
        },
        {
          "indexed": false,
          "internalType": "uint256",
          "name": "id",
          "type": "uint256"
        }
      ],
      "name": "CoinCreated",
      "type": "event"
    },
    {
      "anonymous": false,
      "inputs": [
        {
          "indexed": false,
          "internalType": "address",
          "name": "minterAddress",
          "type": "address"
        },
        {
          "indexed": false,
          "internalType": "uint256",
          "name": "supply",
          "type": "uint256"
        }
      ],
      "name": "CoinMinted",
      "type": "event"
    },
    {
      "anonymous": false,
      "inputs": [
        {
          "indexed": false,
          "internalType": "address",
          "name": "poolAddress",
          "type": "address"
        }
      ],
      "name": "PoolCreated",
      "type": "event"
    },
    {
      "inputs": [
        {
          "internalType": "uint256",
          "name": "",
          "type": "uint256"
        }
      ],
      "name": "coinAddresses",
      "outputs": [
        {
          "internalType": "address",
          "name": "",
          "type": "address"
        }
      ],
      "stateMutability": "view",
      "type": "function",
      "constant": true
    },
    {
      "inputs": [
        {
          "internalType": "uint256",
          "name": "",
          "type": "uint256"
        }
      ],
      "name": "coins",
      "outputs": [
        {
          "internalType": "contract Coin",
          "name": "",
          "type": "address"
        }
      ],
      "stateMutability": "view",
      "type": "function",
      "constant": true
    },
    {
      "inputs": [
        {
          "internalType": "uint256",
          "name": "",
          "type": "uint256"
        }
      ],
      "name": "creators",
      "outputs": [
        {
          "internalType": "address",
          "name": "",
          "type": "address"
        }
      ],
      "stateMutability": "view",
      "type": "function",
      "constant": true
    },
    {
      "inputs": [
        {
          "internalType": "uint256",
          "name": "",
          "type": "uint256"
        }
      ],
      "name": "names",
      "outputs": [
        {
          "internalType": "string",
          "name": "",
          "type": "string"
        }
      ],
      "stateMutability": "view",
      "type": "function",
      "constant": true
    },
    {
      "inputs": [
        {
          "internalType": "uint256",
          "name": "",
          "type": "uint256"
        }
      ],
      "name": "poolAddresses",
      "outputs": [
        {
          "internalType": "address",
          "name": "",
          "type": "address"
        }
      ],
      "stateMutability": "view",
      "type": "function",
      "constant": true
    },
    {
      "inputs": [
        {
          "internalType": "uint256",
          "name": "",
          "type": "uint256"
        }
      ],
      "name": "supplies",
      "outputs": [
        {
          "internalType": "uint256",
          "name": "",
          "type": "uint256"
        }
      ],
      "stateMutability": "view",
      "type": "function",
      "constant": true
    },
    {
      "inputs": [
        {
          "internalType": "uint256",
          "name": "",
          "type": "uint256"
        }
      ],
      "name": "symbols",
      "outputs": [
        {
          "internalType": "string",
          "name": "",
          "type": "string"
        }
      ],
      "stateMutability": "view",
      "type": "function",
      "constant": true
    },
    {
      "inputs": [
        {
          "internalType": "uint256",
          "name": "_salt",
          "type": "uint256"
        },
        {
          "internalType": "address",
          "name": "_implementation",
          "type": "address"
        }
      ],
      "name": "computeAddress",
      "outputs": [
        {
          "internalType": "address",
          "name": "",
          "type": "address"
        }
      ],
      "stateMutability": "view",
      "type": "function",
      "constant": true
    },
    {
      "inputs": [
        {
          "internalType": "uint256",
          "name": "_salt",
          "type": "uint256"
        },
        {
          "internalType": "address",
          "name": "_implementation",
          "type": "address"
        },
        {
          "internalType": "string",
          "name": "_name",
          "type": "string"
        },
        {
          "internalType": "string",
          "name": "_symbol",
          "type": "string"
        },
        {
          "internalType": "uint256",
          "name": "_initialSupply",
          "type": "uint256"
        }
      ],
      "name": "createCoin",
      "outputs": [],
      "stateMutability": "payable",
      "type": "function",
      "payable": true
    },
    {
      "inputs": [
        {
          "internalType": "uint256",
          "name": "_salt",
          "type": "uint256"
        },
        {
          "internalType": "address",
          "name": "_implementation",
          "type": "address"
        },
        {
          "internalType": "address[]",
          "name": "_tokens",
          "type": "address[]"
        },
        {
          "internalType": "uint256[]",
          "name": "_tokenSupplies",
          "type": "uint256[]"
        },
        {
          "internalType": "uint16[]",
          "name": "_definedWeights",
          "type": "uint16[]"
        }
      ],
      "name": "createPool",
      "outputs": [],
      "stateMutability": "payable",
      "type": "function",
      "payable": true
    },
    {
      "inputs": [],
      "name": "getPoolAddresses",
      "outputs": [
        {
          "internalType": "address[]",
          "name": "",
          "type": "address[]"
        }
      ],
      "stateMutability": "view",
      "type": "function",
      "constant": true
    },
    {
      "inputs": [],
      "name": "getNames",
      "outputs": [
        {
          "internalType": "string[]",
          "name": "",
          "type": "string[]"
        }
      ],
      "stateMutability": "view",
      "type": "function",
      "constant": true
    },
    {
      "inputs": [],
      "name": "getSymbols",
      "outputs": [
        {
          "internalType": "string[]",
          "name": "",
          "type": "string[]"
        }
      ],
      "stateMutability": "view",
      "type": "function",
      "constant": true
    },
    {
      "inputs": [],
      "name": "getSupplies",
      "outputs": [
        {
          "internalType": "uint256[]",
          "name": "",
          "type": "uint256[]"
        }
      ],
      "stateMutability": "view",
      "type": "function",
      "constant": true
    },
    {
      "inputs": [],
      "name": "getCoinAddresses",
      "outputs": [
        {
          "internalType": "address[]",
          "name": "",
          "type": "address[]"
        }
      ],
      "stateMutability": "view",
      "type": "function",
      "constant": true
    },
    {
      "inputs": [],
      "name": "sendersCoins",
      "outputs": [
        {
          "internalType": "address[]",
          "name": "",
          "type": "address[]"
        }
      ],
      "stateMutability": "view",
      "type": "function",
      "constant": true
    }
  ],
  "bytecode": "0x608060405234801561001057600080fd5b50600160008190555061240c806100286000396000f3fe6080604052600436106100f35760003560e01c8063c66106571161008a578063cd838f0f11610059578063cd838f0f1461035c578063df7f710e14610387578063e4b6db4c146103b2578063feb21b9c146103dd576100f3565b8063c66106571461027a578063c873d1aa146102b7578063ccce413b146102e2578063cd53d08e1461031f576100f3565b80634a2be046116100c65780634a2be046146101ec57806394a4dd5d14610208578063ab10d2ac14610233578063c54708791461024f576100f3565b806321579893146100f857806326f1a1fd146101355780632ee5001f146101725780634622ab03146101af575b600080fd5b34801561010457600080fd5b5061011f600480360381019061011a91906114d8565b61041a565b60405161012c9190611b5c565b60405180910390f35b34801561014157600080fd5b5061015c600480360381019061015791906114d8565b610459565b6040516101699190611d7e565b60405180910390f35b34801561017e57600080fd5b5061019960048036038101906101949190611501565b61047d565b6040516101a69190611b5c565b60405180910390f35b3480156101bb57600080fd5b506101d660048036038101906101d191906114d8565b6104c7565b6040516101e39190611cdc565b60405180910390f35b610206600480360381019061020191906115fc565b610573565b005b34801561021457600080fd5b5061021d6108e2565b60405161022a9190611c01565b60405180910390f35b61024d6004803603810190610248919061153d565b610970565b005b34801561025b57600080fd5b50610264610b35565b6040516102719190611c01565b60405180910390f35b34801561028657600080fd5b506102a1600480360381019061029c91906114d8565b610c00565b6040516102ae9190611cc1565b60405180910390f35b3480156102c357600080fd5b506102cc610c3f565b6040516102d99190611c9f565b60405180910390f35b3480156102ee57600080fd5b50610309600480360381019061030491906114d8565b610c97565b6040516103169190611cdc565b60405180910390f35b34801561032b57600080fd5b50610346600480360381019061034191906114d8565b610d43565b6040516103539190611b5c565b60405180910390f35b34801561036857600080fd5b50610371610d82565b60405161037e9190611c7d565b60405180910390f35b34801561039357600080fd5b5061039c610e5b565b6040516103a99190611c7d565b60405180910390f35b3480156103be57600080fd5b506103c7610f34565b6040516103d49190611c01565b60405180910390f35b3480156103e957600080fd5b5061040460048036038101906103ff91906114d8565b610fc2565b6040516104119190611b5c565b60405180910390f35b6003818154811061042a57600080fd5b906000526020600020016000915054906101000a900473ffffffffffffffffffffffffffffffffffffffff1681565b600a818154811061046957600080fd5b906000526020600020016000915090505481565b60006104bf836040516020016104939190611b41565b604051602081830303815290604052805190602001206104b284611001565b8051906020012030611077565b905092915050565b600881815481106104d757600080fd5b9060005260206000200160009150905080546104f290612136565b80601f016020809104026020016040519081016040528092919081815260200182805461051e90612136565b801561056b5780601f106105405761010080835404028352916020019161056b565b820191906000526020600020905b81548152906001019060200180831161054e57829003601f168201915b505050505081565b600260005414156105b9576040517f08c379a00000000000000000000000000000000000000000000000000000000081526004016105b090611d3e565b60405180910390fd5b600260008190555060006105fd6000876040516020016105d99190611b41565b604051602081830303815290604052805190602001206105f888611001565b6110bb565b90507f280d4d6166faeea95870de1762e157ed38fedfa636dd46d3a2095f22c119fb6e81600154604051610632929190611bd8565b60405180910390a160008190508073ffffffffffffffffffffffffffffffffffffffff1663747b8a1c338787878b6040518663ffffffff1660e01b8152600401610680959493929190611b77565b600060405180830381600087803b15801561069a57600080fd5b505af11580156106ae573d6000803e3d6000fd5b50505050600160008154809291906106c590612199565b9190505550600660003373ffffffffffffffffffffffffffffffffffffffff1673ffffffffffffffffffffffffffffffffffffffff168152602001908152602001600020829080600181540180825580915050600190039060005260206000200160009091909190916101000a81548173ffffffffffffffffffffffffffffffffffffffff021916908373ffffffffffffffffffffffffffffffffffffffff1602179055506005339080600181540180825580915050600190039060005260206000200160009091909190916101000a81548173ffffffffffffffffffffffffffffffffffffffff021916908373ffffffffffffffffffffffffffffffffffffffff1602179055506003829080600181540180825580915050600190039060005260206000200160009091909190916101000a81548173ffffffffffffffffffffffffffffffffffffffff021916908373ffffffffffffffffffffffffffffffffffffffff16021790555060088590806001815401808255809150506001900390600052602060002001600090919091909150908051906020019061086b9291906111cc565b506009849080600181540180825580915050600190039060005260206000200160009091909190915090805190602001906108a79291906111cc565b50600a839080600181540180825580915050600190039060005260206000200160009091909190915055505060016000819055505050505050565b6060600380548060200260200160405190810160405280929190818152602001828054801561096657602002820191906000526020600020905b8160009054906101000a900473ffffffffffffffffffffffffffffffffffffffff1673ffffffffffffffffffffffffffffffffffffffff168152602001906001019080831161091c575b5050505050905090565b600260005414156109b6576040517f08c379a00000000000000000000000000000000000000000000000000000000081526004016109ad90611d3e565b60405180910390fd5b600260008190555060006109fa6000876040516020016109d69190611b41565b604051602081830303815290604052805190602001206109f588611001565b6110bb565b90507f83a48fbcfc991335314e74d0496aab6a1987e992ddc85dddbcc4d6dd6ef2e9fc81604051610a2b9190611b5c565b60405180910390a160008190508073ffffffffffffffffffffffffffffffffffffffff1663fa3c8ec78686868a6040518563ffffffff1660e01b8152600401610a779493929190611c23565b600060405180830381600087803b158015610a9157600080fd5b505af1158015610aa5573d6000803e3d6000fd5b5050505060026000815480929190610abc90612199565b91905055506004819080600181540180825580915050600190039060005260206000200160009091909190916101000a81548173ffffffffffffffffffffffffffffffffffffffff021916908373ffffffffffffffffffffffffffffffffffffffff160217905550505060016000819055505050505050565b6060600660003373ffffffffffffffffffffffffffffffffffffffff1673ffffffffffffffffffffffffffffffffffffffff168152602001908152602001600020805480602002602001604051908101604052809291908181526020018280548015610bf657602002820191906000526020600020905b8160009054906101000a900473ffffffffffffffffffffffffffffffffffffffff1673ffffffffffffffffffffffffffffffffffffffff1681526020019060010190808311610bac575b5050505050905090565b60078181548110610c1057600080fd5b906000526020600020016000915054906101000a900473ffffffffffffffffffffffffffffffffffffffff1681565b6060600a805480602002602001604051908101604052809291908181526020018280548015610c8d57602002820191906000526020600020905b815481526020019060010190808311610c79575b5050505050905090565b60098181548110610ca757600080fd5b906000526020600020016000915090508054610cc290612136565b80601f0160208091040260200160405190810160405280929190818152602001828054610cee90612136565b8015610d3b5780601f10610d1057610100808354040283529160200191610d3b565b820191906000526020600020905b815481529060010190602001808311610d1e57829003601f168201915b505050505081565b60058181548110610d5357600080fd5b906000526020600020016000915054906101000a900473ffffffffffffffffffffffffffffffffffffffff1681565b60606008805480602002602001604051908101604052809291908181526020016000905b82821015610e52578382906000526020600020018054610dc590612136565b80601f0160208091040260200160405190810160405280929190818152602001828054610df190612136565b8015610e3e5780601f10610e1357610100808354040283529160200191610e3e565b820191906000526020600020905b815481529060010190602001808311610e2157829003601f168201915b505050505081526020019060010190610da6565b50505050905090565b60606009805480602002602001604051908101604052809291908181526020016000905b82821015610f2b578382906000526020600020018054610e9e90612136565b80601f0160208091040260200160405190810160405280929190818152602001828054610eca90612136565b8015610f175780601f10610eec57610100808354040283529160200191610f17565b820191906000526020600020905b815481529060010190602001808311610efa57829003601f168201915b505050505081526020019060010190610e7f565b50505050905090565b60606004805480602002602001604051908101604052809291908181526020018280548015610fb857602002820191906000526020600020905b8160009054906101000a900473ffffffffffffffffffffffffffffffffffffffff1673ffffffffffffffffffffffffffffffffffffffff1681526020019060010190808311610f6e575b5050505050905090565b60048181548110610fd257600080fd5b906000526020600020016000915054906101000a900473ffffffffffffffffffffffffffffffffffffffff1681565b60606000693d602d80600a3d3981f360b01b9050600069363d3d373d3d3d363d7360b01b905060008460601b905060006e5af43d82803e903d91602b57fd5bf360881b90508383838360405160200161105d9493929190611aa5565b604051602081830303815290604052945050505050919050565b60008060ff60f81b8386866040516020016110959493929190611af3565b6040516020818303038152906040528051906020012090508060001c9150509392505050565b60008084471015611101576040517f08c379a00000000000000000000000000000000000000000000000000000000081526004016110f890611d5e565b60405180910390fd5b600083511415611146576040517f08c379a000000000000000000000000000000000000000000000000000000000815260040161113d90611cfe565b60405180910390fd5b8383516020850187f59050600073ffffffffffffffffffffffffffffffffffffffff168173ffffffffffffffffffffffffffffffffffffffff1614156111c1576040517f08c379a00000000000000000000000000000000000000000000000000000000081526004016111b890611d1e565b60405180910390fd5b809150509392505050565b8280546111d890612136565b90600052602060002090601f0160209004810192826111fa5760008555611241565b82601f1061121357805160ff1916838001178555611241565b82800160010185558215611241579182015b82811115611240578251825591602001919060010190611225565b5b50905061124e9190611252565b5090565b5b8082111561126b576000816000905550600101611253565b5090565b600061128261127d84611dbe565b611d99565b905080838252602082019050828560208602820111156112a157600080fd5b60005b858110156112d157816112b788826113f1565b8452602084019350602083019250506001810190506112a4565b5050509392505050565b60006112ee6112e984611dea565b611d99565b9050808382526020820190508285602086028201111561130d57600080fd5b60005b8581101561133d578161132388826114ae565b845260208401935060208301925050600181019050611310565b5050509392505050565b600061135a61135584611e16565b611d99565b9050808382526020820190508285602086028201111561137957600080fd5b60005b858110156113a9578161138f88826114c3565b84526020840193506020830192505060018101905061137c565b5050509392505050565b60006113c66113c184611e42565b611d99565b9050828152602081018484840111156113de57600080fd5b6113e98482856120f4565b509392505050565b60008135905061140081612391565b92915050565b600082601f83011261141757600080fd5b813561142784826020860161126f565b91505092915050565b600082601f83011261144157600080fd5b81356114518482602086016112db565b91505092915050565b600082601f83011261146b57600080fd5b813561147b848260208601611347565b91505092915050565b600082601f83011261149557600080fd5b81356114a58482602086016113b3565b91505092915050565b6000813590506114bd816123a8565b92915050565b6000813590506114d2816123bf565b92915050565b6000602082840312156114ea57600080fd5b60006114f8848285016114c3565b91505092915050565b6000806040838503121561151457600080fd5b6000611522858286016114c3565b9250506020611533858286016113f1565b9150509250929050565b600080600080600060a0868803121561155557600080fd5b6000611563888289016114c3565b9550506020611574888289016113f1565b945050604086013567ffffffffffffffff81111561159157600080fd5b61159d88828901611406565b935050606086013567ffffffffffffffff8111156115ba57600080fd5b6115c68882890161145a565b925050608086013567ffffffffffffffff8111156115e357600080fd5b6115ef88828901611430565b9150509295509295909350565b600080600080600060a0868803121561161457600080fd5b6000611622888289016114c3565b9550506020611633888289016113f1565b945050604086013567ffffffffffffffff81111561165057600080fd5b61165c88828901611484565b935050606086013567ffffffffffffffff81111561167957600080fd5b61168588828901611484565b9250506080611696888289016114c3565b9150509295509295909350565b60006116af838361171d565b60208301905092915050565b60006116c78383611963565b905092915050565b60006116db8383611a61565b60208301905092915050565b60006116f38383611a70565b60208301905092915050565b6117088161209a565b82525050565b61171781611f96565b82525050565b61172681611f84565b82525050565b61173581611f84565b82525050565b61174c61174782611f84565b6121e2565b82525050565b600061175d82611eb3565b6117678185611f1e565b935061177283611e73565b8060005b838110156117a357815161178a88826116a3565b975061179583611eea565b925050600181019050611776565b5085935050505092915050565b60006117bb82611ebe565b6117c58185611f2f565b9350836020820285016117d785611e83565b8060005b8581101561181357848403895281516117f485826116bb565b94506117ff83611ef7565b925060208a019950506001810190506117db565b50829750879550505050505092915050565b600061183082611ec9565b61183a8185611f40565b935061184583611e93565b8060005b8381101561187657815161185d88826116cf565b975061186883611f04565b925050600181019050611849565b5085935050505092915050565b600061188e82611ed4565b6118988185611f51565b93506118a383611ea3565b8060005b838110156118d45781516118bb88826116e7565b97506118c683611f11565b9250506001810190506118a7565b5085935050505092915050565b6118f26118ed82611fd4565b6121fe565b82525050565b61190961190482612000565b612208565b82525050565b61192061191b82611fa8565b6121f4565b82525050565b6119376119328261202c565b612212565b82525050565b61194e61194982612058565b61221c565b82525050565b61195d816120ac565b82525050565b600061196e82611edf565b6119788185611f62565b9350611988818560208601612103565b611991816122cf565b840191505092915050565b60006119a782611edf565b6119b18185611f73565b93506119c1818560208601612103565b6119ca816122cf565b840191505092915050565b60006119e2602083611f73565b91506119ed826122ed565b602082019050919050565b6000611a05601983611f73565b9150611a1082612316565b602082019050919050565b6000611a28601f83611f73565b9150611a338261233f565b602082019050919050565b6000611a4b601d83611f73565b9150611a5682612368565b602082019050919050565b611a6a81612062565b82525050565b611a7981612090565b82525050565b611a8881612090565b82525050565b611a9f611a9a82612090565b612238565b82525050565b6000611ab182876118e1565b600a82019150611ac182866118e1565b600a82019150611ad18285611926565b601482019150611ae182846118f8565b600f8201915081905095945050505050565b6000611aff828761190f565b600182019150611b0f828661173b565b601482019150611b1f828561193d565b602082019150611b2f828461193d565b60208201915081905095945050505050565b6000611b4d8284611a8e565b60208201915081905092915050565b6000602082019050611b71600083018461172c565b92915050565b600060a082019050611b8c600083018861172c565b8181036020830152611b9e818761199c565b90508181036040830152611bb2818661199c565b9050611bc16060830185611a7f565b611bce608083018461170e565b9695505050505050565b6000604082019050611bed600083018561172c565b611bfa6020830184611a7f565b9392505050565b60006020820190508181036000830152611c1b8184611752565b905092915050565b60006080820190508181036000830152611c3d8187611752565b90508181036020830152611c518186611883565b90508181036040830152611c658185611825565b9050611c7460608301846116ff565b95945050505050565b60006020820190508181036000830152611c9781846117b0565b905092915050565b60006020820190508181036000830152611cb98184611883565b905092915050565b6000602082019050611cd66000830184611954565b92915050565b60006020820190508181036000830152611cf6818461199c565b905092915050565b60006020820190508181036000830152611d17816119d5565b9050919050565b60006020820190508181036000830152611d37816119f8565b9050919050565b60006020820190508181036000830152611d5781611a1b565b9050919050565b60006020820190508181036000830152611d7781611a3e565b9050919050565b6000602082019050611d936000830184611a7f565b92915050565b6000611da3611db4565b9050611daf8282612168565b919050565b6000604051905090565b600067ffffffffffffffff821115611dd957611dd86122a0565b5b602082029050602081019050919050565b600067ffffffffffffffff821115611e0557611e046122a0565b5b602082029050602081019050919050565b600067ffffffffffffffff821115611e3157611e306122a0565b5b602082029050602081019050919050565b600067ffffffffffffffff821115611e5d57611e5c6122a0565b5b611e66826122cf565b9050602081019050919050565b6000819050602082019050919050565b6000819050602082019050919050565b6000819050602082019050919050565b6000819050602082019050919050565b600081519050919050565b600081519050919050565b600081519050919050565b600081519050919050565b600081519050919050565b6000602082019050919050565b6000602082019050919050565b6000602082019050919050565b6000602082019050919050565b600082825260208201905092915050565b600082825260208201905092915050565b600082825260208201905092915050565b600082825260208201905092915050565b600082825260208201905092915050565b600082825260208201905092915050565b6000611f8f82612070565b9050919050565b6000611fa182612070565b9050919050565b60007fff0000000000000000000000000000000000000000000000000000000000000082169050919050565b60007fffffffffffffffffffff0000000000000000000000000000000000000000000082169050919050565b60007fffffffffffffffffffffffffffffff000000000000000000000000000000000082169050919050565b60007fffffffffffffffffffffffffffffffffffffffff00000000000000000000000082169050919050565b6000819050919050565b600061ffff82169050919050565b600073ffffffffffffffffffffffffffffffffffffffff82169050919050565b6000819050919050565b60006120a5826120d0565b9050919050565b60006120b7826120be565b9050919050565b60006120c982612070565b9050919050565b60006120db826120e2565b9050919050565b60006120ed82612070565b9050919050565b82818337600083830152505050565b60005b83811015612121578082015181840152602081019050612106565b83811115612130576000848401525b50505050565b6000600282049050600182168061214e57607f821691505b6020821081141561216257612161612271565b5b50919050565b612171826122cf565b810181811067ffffffffffffffff821117156121905761218f6122a0565b5b80604052505050565b60006121a482612090565b91507fffffffffffffffffffffffffffffffffffffffffffffffffffffffffffffffff8214156121d7576121d6612242565b5b600182019050919050565b60006121ed82612226565b9050919050565b6000819050919050565b6000819050919050565b6000819050919050565b6000819050919050565b6000819050919050565b6000612231826122e0565b9050919050565b6000819050919050565b7f4e487b7100000000000000000000000000000000000000000000000000000000600052601160045260246000fd5b7f4e487b7100000000000000000000000000000000000000000000000000000000600052602260045260246000fd5b7f4e487b7100000000000000000000000000000000000000000000000000000000600052604160045260246000fd5b6000601f19601f8301169050919050565b60008160601b9050919050565b7f437265617465323a2062797465636f6465206c656e677468206973207a65726f600082015250565b7f437265617465323a204661696c6564206f6e206465706c6f7900000000000000600082015250565b7f5265656e7472616e637947756172643a207265656e7472616e742063616c6c00600082015250565b7f437265617465323a20696e73756666696369656e742062616c616e6365000000600082015250565b61239a81611f84565b81146123a557600080fd5b50565b6123b181612062565b81146123bc57600080fd5b50565b6123c881612090565b81146123d357600080fd5b5056fea2646970667358221220b8b93c50ea8d7bd0e96e643101500e83b25451a8e105ba21735bf713d200f2cd64736f6c63430008020033",
  "immutableReferences": {},
  "source": "// SPDX-License-Identifier: MIT\r\npragma solidity >=0.6.0 <0.9.0 ;\r\npragma experimental ABIEncoderV2;\r\n\r\n\r\nimport \"../client/node_modules/@openzeppelin/contracts/token/ERC777/ERC777.sol\";\r\nimport \"../client/node_modules/@openzeppelin/contracts-upgradeable/token/ERC20/ERC20Upgradeable.sol\";\r\nimport \"../client/node_modules/@openzeppelin/contracts-upgradeable/utils/Create2Upgradeable.sol\";\r\nimport \"../client/node_modules/@openzeppelin/contracts/access/Ownable.sol\";\r\nimport \"../client/node_modules/@openzeppelin/contracts/utils/math/SafeMath.sol\";\r\nimport \"../client/node_modules/@openzeppelin/contracts/security/ReentrancyGuard.sol\";\r\nimport \"../client/node_modules/@openzeppelin/contracts/proxy/Proxy.sol\";\r\nimport \"./Coin.sol\";\r\nimport \"./LPool.sol\";\r\n\r\ncontract Minter is ReentrancyGuard{\r\n    /*By tracking the details of each coin in lists in storage the contract is sacrificing\r\n    deployment cost for frontend speed for lists. If I planned to run this on the EVM I would \r\n    give let users subscribe to the coins that they wanted to track and call the original ERC20 contracts\r\n    individually to save deployment costs. Assuming cost optimization, the only necessary variables would be the ERC20 contract instances \"coins\"\r\n    and the \"creators\" list (to keep track of the user who created the coin since the Minter contract address is always the true creator).\r\n    All other variable are used for quick frontend development */\r\n    uint counter;\r\n    uint poolCounter;\r\n    address[] public coinAddresses;\r\n    address[] public poolAddresses;\r\n    address[] public creators;\r\n    mapping(address => address[]) minters; //stores list of coins created by address\r\n    Coin[] public coins;\r\n    string[] public names;\r\n    string[] public symbols;\r\n    uint[] public supplies;\r\n\r\n    event CoinCreated(address coinAddress, uint id);\r\n    event PoolCreated(address poolAddress);\r\n    event CoinMinted(address minterAddress, uint supply);\r\n\r\n    function computeAddress(uint256 _salt, address _implementation) public view returns(address){\r\n        return Create2Upgradeable.computeAddress(keccak256(abi.encodePacked(_salt)),\r\n                                                keccak256(getContractCreationCode(_implementation)),\r\n                                                address(this));\r\n    }\r\n\r\n    function getContractCreationCode(address _logic) internal pure returns(bytes memory){\r\n        bytes10 creation = 0x3d602d80600a3d3981f3;\r\n        bytes10 prefix = 0x363d3d373d3d3d363d73;\r\n        bytes20 targetBytes = bytes20(_logic);\r\n        bytes15 suffix = 0x5af43d82803e903d91602b57fd5bf3;\r\n        return abi.encodePacked(creation, prefix, targetBytes, suffix);\r\n\r\n    }\r\n\r\n    function createCoin(uint256 _salt, address _implementation, string memory _name, string memory _symbol,uint _initialSupply) external payable nonReentrant {\r\n        //transfer msg.value to factory contract so that factory contract can fund proxy contract\r\n        address coinProxy = Create2Upgradeable.deploy(\r\n            0,\r\n            keccak256(abi.encodePacked(_salt)),\r\n            getContractCreationCode(_implementation)\r\n        );\r\n        emit CoinCreated(coinProxy, counter);\r\n        Coin _coin = Coin(payable(coinProxy));\r\n        // bytes memory _payload = abi.encodeWithSignature(\"initialize(address, string, string, uint, address)\",address(this), _name, _symbol, _initialSupply, _implementation);\r\n        // (bool success, bytes memory returnData) = coinProxy.call{value:msg.value, gas:msg.value}(_payload);\r\n        // require(success==true, \"Initialization of coin failed\");\r\n        _coin.initialize(msg.sender, _name, _symbol, _initialSupply, payable(_implementation));\r\n        counter++;\r\n        minters[msg.sender].push(coinProxy);\r\n        creators.push(msg.sender);\r\n        coinAddresses.push(coinProxy);\r\n\r\n        names.push(_name);\r\n        symbols.push(_symbol);\r\n        supplies.push(_initialSupply);\r\n\r\n    }\r\n\r\n    function createPool(uint256 _salt, address _implementation, address[] memory _tokens, uint256[] memory _tokenSupplies, uint16[] memory _definedWeights) external payable nonReentrant {\r\n        //transfer msg.value to factory contract so that factory contract can fund proxy contract\r\n        address poolProxy = Create2Upgradeable.deploy(\r\n            0,\r\n            keccak256(abi.encodePacked(_salt)),\r\n            getContractCreationCode(_implementation)\r\n        );\r\n        emit PoolCreated(address(poolProxy));\r\n        LPool _pool = LPool(payable(poolProxy));\r\n        _pool.initialize(_tokens, _tokenSupplies, _definedWeights, payable(_implementation));\r\n        poolCounter++;\r\n        poolAddresses.push(address(_pool));\r\n    }\r\n\r\n    function getPoolAddresses() external view returns (address[] memory){\r\n        return poolAddresses;\r\n    }\r\n\r\n\r\n    \r\n    function getNames() external view returns (string[] memory) {\r\n        return names;\r\n    }\r\n\r\n    function getSymbols() external view returns (string[] memory) {\r\n        return symbols;\r\n    }\r\n\r\n    function getSupplies() external view returns (uint[] memory){\r\n        return supplies;\r\n    }\r\n\r\n    function getCoinAddresses() external view returns (address[] memory ){\r\n        return coinAddresses;\r\n    }\r\n\r\n\r\n    function sendersCoins() external view returns (address[] memory){\r\n        return minters[msg.sender];   \r\n    }\r\n\r\n    \r\n\r\n\r\n}\r\n\r\n",
  "sourcePath": "C:/Users/cr100131/apps/MyPortfolio/contracts/Minter.sol",
  "compiler": {
    "name": "solc",
    "version": "0.8.2+commit.661d1103.Emscripten.clang"
  },
  "schemaVersion": "3.3.4",
  "updatedAt": "2021-04-01T16:58:29.659Z",
  "networkType": "ethereum",
  "devdoc": {
    "kind": "dev",
    "methods": {},
    "version": 1
  },
  "userdoc": {
    "kind": "user",
    "methods": {},
    "version": 1
  }
}